:100000000C94A2000C94AE000C94AE000C94AE00C4
:100010000C94AE000C94AE000C94AE000C94AE00A8
:100020000C94AE000C94AE000C94AE000C94AE0098
:100030000C94AE000C94AE000C94AE000C94AE0088
:100040000C94AE000C94AE000C94AE000C94AE0078
:100050000C94AE000C94AE000C94AE000C94AE0068
:100060000C94AE000C94AE000C94AE000C94AE0058
:100070000C94AE000C94AE000C94AE000C94AE0048
:100080000C94AE000C94AE000C94AE000C94AE0038
:100090000C94AE000C94AE000C94AE000C94AE0028
:1000A0000C94AE000C94AE000C94AE000C94AE0018
:1000B0000C94AE000C94AE000C94AE000C94AE0008
:1000C0000C94AE000C94AE000C94AE000C94AE00F8
:1000D0000C94AE000C94AE000C94AE000C94AE00E8
:1000E0000C94AE000C94AE000C94AE000C94AE00D8
:1000F0000C94AE000C94AE000C94AE000C94AE00C8
:100100000C94AE000C94AE000C94AE000C94AE00B7
:100110000C94AE000C94AE000C94AE000C94AE00A7
:100120000C94AE000C94AE000C94AE000C94AE0097
:100130000C94AE000C94AE000C94AE000C94AE0087
:100140000C94AE0011241FBECFEFCDBFDFE3DEBFA6
:1001500000E00CBF0E94B0000C94B1000C940000B1
:06016000FFCFF894FFCF71
:00000001FF
